{
  "_format": "hh-sol-artifact-1",
  "contractName": "NFTMarketplace",
  "sourceName": "contracts/NFTMarketplace.sol",
  "abi": [
    {
      "inputs": [],
      "stateMutability": "nonpayable",
      "type": "constructor"
    },
    {
      "anonymous": false,
      "inputs": [
        {
          "indexed": true,
          "internalType": "address",
          "name": "owner",
          "type": "address"
        },
        {
          "indexed": true,
          "internalType": "address",
          "name": "approved",
          "type": "address"
        },
        {
          "indexed": true,
          "internalType": "uint256",
          "name": "tokenId",
          "type": "uint256"
        }
      ],
      "name": "Approval",
      "type": "event"
    },
    {
      "anonymous": false,
      "inputs": [
        {
          "indexed": true,
          "internalType": "address",
          "name": "owner",
          "type": "address"
        },
        {
          "indexed": true,
          "internalType": "address",
          "name": "operator",
          "type": "address"
        },
        {
          "indexed": false,
          "internalType": "bool",
          "name": "approved",
          "type": "bool"
        }
      ],
      "name": "ApprovalForAll",
      "type": "event"
    },
    {
      "anonymous": false,
      "inputs": [
        {
          "indexed": true,
          "internalType": "uint256",
          "name": "tokenId",
          "type": "uint256"
        },
        {
          "indexed": false,
          "internalType": "address",
          "name": "seller",
          "type": "address"
        },
        {
          "indexed": false,
          "internalType": "address",
          "name": "owner",
          "type": "address"
        },
        {
          "indexed": false,
          "internalType": "uint256",
          "name": "price",
          "type": "uint256"
        },
        {
          "indexed": false,
          "internalType": "bool",
          "name": "sold",
          "type": "bool"
        }
      ],
      "name": "MarketItemCreated",
      "type": "event"
    },
    {
      "anonymous": false,
      "inputs": [
        {
          "indexed": true,
          "internalType": "address",
          "name": "from",
          "type": "address"
        },
        {
          "indexed": true,
          "internalType": "address",
          "name": "to",
          "type": "address"
        },
        {
          "indexed": true,
          "internalType": "uint256",
          "name": "tokenId",
          "type": "uint256"
        }
      ],
      "name": "Transfer",
      "type": "event"
    },
    {
      "inputs": [
        {
          "internalType": "address",
          "name": "to",
          "type": "address"
        },
        {
          "internalType": "uint256",
          "name": "tokenId",
          "type": "uint256"
        }
      ],
      "name": "approve",
      "outputs": [],
      "stateMutability": "nonpayable",
      "type": "function"
    },
    {
      "inputs": [
        {
          "internalType": "address",
          "name": "owner",
          "type": "address"
        }
      ],
      "name": "balanceOf",
      "outputs": [
        {
          "internalType": "uint256",
          "name": "",
          "type": "uint256"
        }
      ],
      "stateMutability": "view",
      "type": "function"
    },
    {
      "inputs": [
        {
          "internalType": "uint256",
          "name": "tokenId",
          "type": "uint256"
        }
      ],
      "name": "createMarketSale",
      "outputs": [],
      "stateMutability": "payable",
      "type": "function"
    },
    {
      "inputs": [
        {
          "internalType": "string",
          "name": "tokenURI",
          "type": "string"
        },
        {
          "internalType": "uint256",
          "name": "price",
          "type": "uint256"
        }
      ],
      "name": "createToken",
      "outputs": [
        {
          "internalType": "uint256",
          "name": "",
          "type": "uint256"
        }
      ],
      "stateMutability": "payable",
      "type": "function"
    },
    {
      "inputs": [],
      "name": "fetchItemsListed",
      "outputs": [
        {
          "components": [
            {
              "internalType": "uint256",
              "name": "tokenId",
              "type": "uint256"
            },
            {
              "internalType": "address payable",
              "name": "seller",
              "type": "address"
            },
            {
              "internalType": "address payable",
              "name": "owner",
              "type": "address"
            },
            {
              "internalType": "uint256",
              "name": "price",
              "type": "uint256"
            },
            {
              "internalType": "bool",
              "name": "sold",
              "type": "bool"
            }
          ],
          "internalType": "struct NFTMarketplace.MarketItem[]",
          "name": "",
          "type": "tuple[]"
        }
      ],
      "stateMutability": "view",
      "type": "function"
    },
    {
      "inputs": [],
      "name": "fetchMarketItems",
      "outputs": [
        {
          "components": [
            {
              "internalType": "uint256",
              "name": "tokenId",
              "type": "uint256"
            },
            {
              "internalType": "address payable",
              "name": "seller",
              "type": "address"
            },
            {
              "internalType": "address payable",
              "name": "owner",
              "type": "address"
            },
            {
              "internalType": "uint256",
              "name": "price",
              "type": "uint256"
            },
            {
              "internalType": "bool",
              "name": "sold",
              "type": "bool"
            }
          ],
          "internalType": "struct NFTMarketplace.MarketItem[]",
          "name": "",
          "type": "tuple[]"
        }
      ],
      "stateMutability": "view",
      "type": "function"
    },
    {
      "inputs": [],
      "name": "fetchMyNFTs",
      "outputs": [
        {
          "components": [
            {
              "internalType": "uint256",
              "name": "tokenId",
              "type": "uint256"
            },
            {
              "internalType": "address payable",
              "name": "seller",
              "type": "address"
            },
            {
              "internalType": "address payable",
              "name": "owner",
              "type": "address"
            },
            {
              "internalType": "uint256",
              "name": "price",
              "type": "uint256"
            },
            {
              "internalType": "bool",
              "name": "sold",
              "type": "bool"
            }
          ],
          "internalType": "struct NFTMarketplace.MarketItem[]",
          "name": "",
          "type": "tuple[]"
        }
      ],
      "stateMutability": "view",
      "type": "function"
    },
    {
      "inputs": [
        {
          "internalType": "uint256",
          "name": "tokenId",
          "type": "uint256"
        }
      ],
      "name": "getApproved",
      "outputs": [
        {
          "internalType": "address",
          "name": "",
          "type": "address"
        }
      ],
      "stateMutability": "view",
      "type": "function"
    },
    {
      "inputs": [],
      "name": "getListingPrice",
      "outputs": [
        {
          "internalType": "uint256",
          "name": "",
          "type": "uint256"
        }
      ],
      "stateMutability": "view",
      "type": "function"
    },
    {
      "inputs": [
        {
          "internalType": "address",
          "name": "owner",
          "type": "address"
        },
        {
          "internalType": "address",
          "name": "operator",
          "type": "address"
        }
      ],
      "name": "isApprovedForAll",
      "outputs": [
        {
          "internalType": "bool",
          "name": "",
          "type": "bool"
        }
      ],
      "stateMutability": "view",
      "type": "function"
    },
    {
      "inputs": [],
      "name": "name",
      "outputs": [
        {
          "internalType": "string",
          "name": "",
          "type": "string"
        }
      ],
      "stateMutability": "view",
      "type": "function"
    },
    {
      "inputs": [
        {
          "internalType": "uint256",
          "name": "tokenId",
          "type": "uint256"
        }
      ],
      "name": "ownerOf",
      "outputs": [
        {
          "internalType": "address",
          "name": "",
          "type": "address"
        }
      ],
      "stateMutability": "view",
      "type": "function"
    },
    {
      "inputs": [
        {
          "internalType": "uint256",
          "name": "",
          "type": "uint256"
        }
      ],
      "name": "previousOwner",
      "outputs": [
        {
          "internalType": "address",
          "name": "previous",
          "type": "address"
        }
      ],
      "stateMutability": "view",
      "type": "function"
    },
    {
      "inputs": [
        {
          "internalType": "uint256",
          "name": "tokenId",
          "type": "uint256"
        }
      ],
      "name": "removeOnMarket",
      "outputs": [],
      "stateMutability": "nonpayable",
      "type": "function"
    },
    {
      "inputs": [
        {
          "internalType": "uint256",
          "name": "tokenId",
          "type": "uint256"
        },
        {
          "internalType": "uint256",
          "name": "price",
          "type": "uint256"
        }
      ],
      "name": "resellToken",
      "outputs": [],
      "stateMutability": "payable",
      "type": "function"
    },
    {
      "inputs": [
        {
          "internalType": "address",
          "name": "from",
          "type": "address"
        },
        {
          "internalType": "address",
          "name": "to",
          "type": "address"
        },
        {
          "internalType": "uint256",
          "name": "tokenId",
          "type": "uint256"
        }
      ],
      "name": "safeTransferFrom",
      "outputs": [],
      "stateMutability": "nonpayable",
      "type": "function"
    },
    {
      "inputs": [
        {
          "internalType": "address",
          "name": "from",
          "type": "address"
        },
        {
          "internalType": "address",
          "name": "to",
          "type": "address"
        },
        {
          "internalType": "uint256",
          "name": "tokenId",
          "type": "uint256"
        },
        {
          "internalType": "bytes",
          "name": "_data",
          "type": "bytes"
        }
      ],
      "name": "safeTransferFrom",
      "outputs": [],
      "stateMutability": "nonpayable",
      "type": "function"
    },
    {
      "inputs": [
        {
          "internalType": "address",
          "name": "operator",
          "type": "address"
        },
        {
          "internalType": "bool",
          "name": "approved",
          "type": "bool"
        }
      ],
      "name": "setApprovalForAll",
      "outputs": [],
      "stateMutability": "nonpayable",
      "type": "function"
    },
    {
      "inputs": [
        {
          "internalType": "bytes4",
          "name": "interfaceId",
          "type": "bytes4"
        }
      ],
      "name": "supportsInterface",
      "outputs": [
        {
          "internalType": "bool",
          "name": "",
          "type": "bool"
        }
      ],
      "stateMutability": "view",
      "type": "function"
    },
    {
      "inputs": [],
      "name": "symbol",
      "outputs": [
        {
          "internalType": "string",
          "name": "",
          "type": "string"
        }
      ],
      "stateMutability": "view",
      "type": "function"
    },
    {
      "inputs": [
        {
          "internalType": "uint256",
          "name": "tokenId",
          "type": "uint256"
        }
      ],
      "name": "tokenURI",
      "outputs": [
        {
          "internalType": "string",
          "name": "",
          "type": "string"
        }
      ],
      "stateMutability": "view",
      "type": "function"
    },
    {
      "inputs": [
        {
          "internalType": "address",
          "name": "from",
          "type": "address"
        },
        {
          "internalType": "address",
          "name": "to",
          "type": "address"
        },
        {
          "internalType": "uint256",
          "name": "tokenId",
          "type": "uint256"
        }
      ],
      "name": "transferFrom",
      "outputs": [],
      "stateMutability": "nonpayable",
      "type": "function"
    },
    {
      "inputs": [
        {
          "internalType": "uint256",
          "name": "_listingPrice",
          "type": "uint256"
        }
      ],
      "name": "updateListingPrice",
      "outputs": [],
      "stateMutability": "payable",
      "type": "function"
    }
  ],
  "bytecode": "0x608060405260006009553480156200001657600080fd5b50604080518082018252601081526f4d657461766572736520546f6b656e7360801b6020808301918252835180850190945260048452631351551560e21b9084015281519192916200006b916000916200009c565b508051620000819060019060208401906200009c565b5050600a80546001600160a01b03191633179055506200017f565b828054620000aa9062000142565b90600052602060002090601f016020900481019282620000ce576000855562000119565b82601f10620000e957805160ff191683800117855562000119565b8280016001018555821562000119579182015b8281111562000119578251825591602001919060010190620000fc565b50620001279291506200012b565b5090565b5b808211156200012757600081556001016200012c565b600181811c908216806200015757607f821691505b602082108114156200017957634e487b7160e01b600052602260045260246000fd5b50919050565b6124d9806200018f6000396000f3fe6080604052600436106101405760003560e01c806370a08231116100b6578063ae677aa31161006f578063ae677aa31461037f578063b88d4fde14610392578063be9af536146103b2578063c87b56dd146103c5578063e219fc75146103e5578063e985e9c5146103f857600080fd5b806370a08231146102c157806372b3b620146102e157806373e152ea146102f457806395d89b4114610314578063a22cb46514610329578063a85158241461034957600080fd5b806312e855851161010857806312e8558514610218578063202e37401461023757806323b872dd1461024c57806342842e0e1461026c57806345f8fa801461028c5780636352211e146102a157600080fd5b806301ffc9a71461014557806306fdde031461017a578063081812fc1461019c578063095ea7b3146101d45780630f08efe0146101f6575b600080fd5b34801561015157600080fd5b50610165610160366004612050565b610441565b60405190151581526020015b60405180910390f35b34801561018657600080fd5b5061018f610493565b604051610171919061222b565b3480156101a857600080fd5b506101bc6101b73660046120de565b610525565b6040516001600160a01b039091168152602001610171565b3480156101e057600080fd5b506101f46101ef366004612027565b6105b2565b005b34801561020257600080fd5b5061020b6106c8565b60405161017191906121af565b34801561022457600080fd5b506009545b604051908152602001610171565b34801561024357600080fd5b5061020b61087c565b34801561025857600080fd5b506101f4610267366004611f39565b610a6e565b34801561027857600080fd5b506101f4610287366004611f39565b610a9f565b34801561029857600080fd5b5061020b610aba565b3480156102ad57600080fd5b506101bc6102bc3660046120de565b610cac565b3480156102cd57600080fd5b506102296102dc366004611eed565b610d23565b6102296102ef366004612088565b610daa565b34801561030057600080fd5b506101f461030f3660046120de565b610dec565b34801561032057600080fd5b5061018f610e86565b34801561033557600080fd5b506101f4610344366004611fed565b610e95565b34801561035557600080fd5b506101bc6103643660046120de565b600c602052600090815260409020546001600160a01b031681565b6101f461038d3660046120de565b610ea4565b34801561039e57600080fd5b506101f46103ad366004611f74565b610f1c565b6101f46103c03660046120de565b610f54565b3480156103d157600080fd5b5061018f6103e03660046120de565b6110f4565b6101f46103f33660046120f6565b61126b565b34801561040457600080fd5b50610165610413366004611f07565b6001600160a01b03918216600090815260056020908152604080832093909416825291909152205460ff1690565b60006001600160e01b031982166380ac58cd60e01b148061047257506001600160e01b03198216635b5e139f60e01b145b8061048d57506301ffc9a760e01b6001600160e01b03198316145b92915050565b6060600080546104a2906123de565b80601f01602080910402602001604051908101604052809291908181526020018280546104ce906123de565b801561051b5780601f106104f05761010080835404028352916020019161051b565b820191906000526020600020905b8154815290600101906020018083116104fe57829003601f168201915b5050505050905090565b600061053082611320565b6105965760405162461bcd60e51b815260206004820152602c60248201527f4552433732313a20617070726f76656420717565727920666f72206e6f6e657860448201526b34b9ba32b73a103a37b5b2b760a11b60648201526084015b60405180910390fd5b506000908152600460205260409020546001600160a01b031690565b60006105bd82610cac565b9050806001600160a01b0316836001600160a01b0316141561062b5760405162461bcd60e51b815260206004820152602160248201527f4552433732313a20617070726f76616c20746f2063757272656e74206f776e656044820152603960f91b606482015260840161058d565b336001600160a01b038216148061064757506106478133610413565b6106b95760405162461bcd60e51b815260206004820152603860248201527f4552433732313a20617070726f76652063616c6c6572206973206e6f74206f7760448201527f6e6572206e6f7220617070726f76656420666f7220616c6c0000000000000000606482015260840161058d565b6106c3838361133d565b505050565b606060006106d560075490565b905060006106e260085490565b6007546106ef919061239b565b90506000808267ffffffffffffffff81111561071b57634e487b7160e01b600052604160045260246000fd5b60405190808252806020026020018201604052801561077457816020015b6040805160a0810182526000808252602080830182905292820181905260608201819052608082015282526000199092019101816107395790505b50905060005b848110156108735730600b600061079284600161236f565b81526020810191909152604001600020600201546001600160a01b031614156108615760006107c282600161236f565b6000818152600b6020908152604091829020825160a0810184528154815260018201546001600160a01b039081169382019390935260028201549092169282019290925260038201546060820152600482015460ff16151560808201528551929350909185908790811061084657634e487b7160e01b600052603260045260246000fd5b602090810291909101015261085c60018661236f565b945050505b8061086b81612419565b91505061077a565b50949350505050565b6060600061088960075490565b905060008060005b838110156108ec5733600b60006108a984600161236f565b81526020810191909152604001600020600201546001600160a01b031614156108da576108d760018461236f565b92505b806108e481612419565b915050610891565b5060008267ffffffffffffffff81111561091657634e487b7160e01b600052604160045260246000fd5b60405190808252806020026020018201604052801561096f57816020015b6040805160a0810182526000808252602080830182905292820181905260608201819052608082015282526000199092019101816109345790505b50905060005b848110156108735733600b600061098d84600161236f565b81526020810191909152604001600020600201546001600160a01b03161415610a5c5760006109bd82600161236f565b6000818152600b6020908152604091829020825160a0810184528154815260018201546001600160a01b039081169382019390935260028201549092169282019290925260038201546060820152600482015460ff161515608082015285519293509091859087908110610a4157634e487b7160e01b600052603260045260246000fd5b6020908102919091010152610a5760018661236f565b945050505b80610a6681612419565b915050610975565b610a7833826113ab565b610a945760405162461bcd60e51b815260040161058d9061231e565b6106c3838383611491565b6106c383838360405180602001604052806000815250610f1c565b60606000610ac760075490565b905060008060005b83811015610b2a5733600b6000610ae784600161236f565b81526020810191909152604001600020600101546001600160a01b03161415610b1857610b1560018461236f565b92505b80610b2281612419565b915050610acf565b5060008267ffffffffffffffff811115610b5457634e487b7160e01b600052604160045260246000fd5b604051908082528060200260200182016040528015610bad57816020015b6040805160a081018252600080825260208083018290529282018190526060820181905260808201528252600019909201910181610b725790505b50905060005b848110156108735733600b6000610bcb84600161236f565b81526020810191909152604001600020600101546001600160a01b03161415610c9a576000610bfb82600161236f565b6000818152600b6020908152604091829020825160a0810184528154815260018201546001600160a01b039081169382019390935260028201549092169282019290925260038201546060820152600482015460ff161515608082015285519293509091859087908110610c7f57634e487b7160e01b600052603260045260246000fd5b6020908102919091010152610c9560018661236f565b945050505b80610ca481612419565b915050610bb3565b6000818152600260205260408120546001600160a01b03168061048d5760405162461bcd60e51b815260206004820152602960248201527f4552433732313a206f776e657220717565727920666f72206e6f6e657869737460448201526832b73a103a37b5b2b760b91b606482015260840161058d565b60006001600160a01b038216610d8e5760405162461bcd60e51b815260206004820152602a60248201527f4552433732313a2062616c616e636520717565727920666f7220746865207a65604482015269726f206164647265737360b01b606482015260840161058d565b506001600160a01b031660009081526003602052604090205490565b6000610dba600780546001019055565b6000610dc560075490565b9050610dd1338261162d565b610ddb8185611760565b610de581846117eb565b9392505050565b6000818152600c60205260409020546001600160a01b03163314610e225760405162461bcd60e51b815260040161058d90612290565b6000818152600b6020526040902060020180546001600160a01b03191633179055610e51600880546001019055565b30610e5b82610cac565b5050610e68303383611491565b6000908152600b60205260409020600401805460ff19166001179055565b6060600180546104a2906123de565b610ea033838361196b565b5050565b600a546001600160a01b03163314610f175760405162461bcd60e51b815260206004820152603060248201527f4f6e6c79206d61726b6574706c616365206f776e65722063616e20757064617460448201526f32903634b9ba34b73390383934b1b29760811b606482015260840161058d565b600955565b610f2633836113ab565b610f425760405162461bcd60e51b815260040161058d9061231e565b610f4e84848484611a3a565b50505050565b6000818152600b6020526040902060038101546001909101546001600160a01b0316348214610fed576040805162461bcd60e51b81526020600482015260248101919091527f506c65617365207375626d6974207468652061736b696e67207072696365206960448201527f6e206f7264657220746f20636f6d706c65746520746865207075726368617365606482015260840161058d565b6000838152600b602052604090206002810180546001600160a01b0319908116331790915560048201805460ff191660019081179091559091018054909116905561103c600880546001019055565b611047303385611491565b600a546009546040516001600160a01b039092169181156108fc0291906000818181858888f19350505050158015611083573d6000803e3d6000fd5b506040516001600160a01b038216903480156108fc02916000818181858888f193505050501580156110b9573d6000803e3d6000fd5b505060408051602080820183523382526000948552600c90529220915182546001600160a01b0319166001600160a01b039091161790915550565b60606110ff82611320565b6111655760405162461bcd60e51b815260206004820152603160248201527f45524337323155524953746f726167653a2055524920717565727920666f72206044820152703737b732bc34b9ba32b73a103a37b5b2b760791b606482015260840161058d565b6000828152600660205260408120805461117e906123de565b80601f01602080910402602001604051908101604052809291908181526020018280546111aa906123de565b80156111f75780601f106111cc576101008083540402835291602001916111f7565b820191906000526020600020905b8154815290600101906020018083116111da57829003601f168201915b50505050509050600061121560408051602081019091526000815290565b9050805160001415611228575092915050565b81511561125a578082604051602001611242929190612143565b60405160208183030381529060405292505050919050565b61126384611a6d565b949350505050565b6000828152600b60205260409020600201546001600160a01b031633146112a45760405162461bcd60e51b815260040161058d90612290565b60095434146112c55760405162461bcd60e51b815260040161058d906122da565b6000828152600b6020526040902060048101805460ff19169055600381018290556001810180546001600160a01b0319908116331790915560029091018054909116301790556113156008611b44565b610ea0333084611491565b6000908152600260205260409020546001600160a01b0316151590565b600081815260046020526040902080546001600160a01b0319166001600160a01b038416908117909155819061137282610cac565b6001600160a01b03167f8c5be1e5ebec7d5bd14f71427d1e84f3dd0314c0f7b2291e5b200ac8c7c3b92560405160405180910390a45050565b60006113b682611320565b6114175760405162461bcd60e51b815260206004820152602c60248201527f4552433732313a206f70657261746f7220717565727920666f72206e6f6e657860448201526b34b9ba32b73a103a37b5b2b760a11b606482015260840161058d565b600061142283610cac565b9050806001600160a01b0316846001600160a01b0316148061145d5750836001600160a01b031661145284610525565b6001600160a01b0316145b8061126357506001600160a01b0380821660009081526005602090815260408083209388168352929052205460ff16611263565b826001600160a01b03166114a482610cac565b6001600160a01b0316146115085760405162461bcd60e51b815260206004820152602560248201527f4552433732313a207472616e736665722066726f6d20696e636f72726563742060448201526437bbb732b960d91b606482015260840161058d565b6001600160a01b03821661156a5760405162461bcd60e51b8152602060048201526024808201527f4552433732313a207472616e7366657220746f20746865207a65726f206164646044820152637265737360e01b606482015260840161058d565b61157560008261133d565b6001600160a01b038316600090815260036020526040812080546001929061159e90849061239b565b90915550506001600160a01b03821660009081526003602052604081208054600192906115cc90849061236f565b909155505060008181526002602052604080822080546001600160a01b0319166001600160a01b0386811691821790925591518493918716917fddf252ad1be2c89b69c2b068fc378daa952ba7f163c4a11628f55a4df523b3ef91a4505050565b6001600160a01b0382166116835760405162461bcd60e51b815260206004820181905260248201527f4552433732313a206d696e7420746f20746865207a65726f2061646472657373604482015260640161058d565b61168c81611320565b156116d95760405162461bcd60e51b815260206004820152601c60248201527f4552433732313a20746f6b656e20616c7265616479206d696e74656400000000604482015260640161058d565b6001600160a01b038216600090815260036020526040812080546001929061170290849061236f565b909155505060008181526002602052604080822080546001600160a01b0319166001600160a01b03861690811790915590518392907fddf252ad1be2c89b69c2b068fc378daa952ba7f163c4a11628f55a4df523b3ef908290a45050565b61176982611320565b6117cc5760405162461bcd60e51b815260206004820152602e60248201527f45524337323155524953746f726167653a2055524920736574206f66206e6f6e60448201526d32bc34b9ba32b73a103a37b5b2b760911b606482015260840161058d565b600082815260066020908152604090912082516106c392840190611dc2565b6000811161183b5760405162461bcd60e51b815260206004820152601c60248201527f5072696365206d757374206265206174206c6561737420312077656900000000604482015260640161058d565b600954341461185c5760405162461bcd60e51b815260040161058d906122da565b6040805160a08101825283815233602080830182815230848601818152606086018881526000608088018181528b8252600b87528982209851895594516001890180546001600160a01b03199081166001600160a01b0393841617909155935160028a01805486169183169190911790559151600389015593516004909701805460ff19169715159790971790965586518085018852858152898452600c9094529590912091518254909516949093169390931790925561191e919084611491565b604080513381523060208201529081018290526000606082015282907fb640004f1d14576d0c209e240cad0410e0d8c0c33a09375861fbadae2588a98d9060800160405180910390a25050565b816001600160a01b0316836001600160a01b031614156119cd5760405162461bcd60e51b815260206004820152601960248201527f4552433732313a20617070726f766520746f2063616c6c657200000000000000604482015260640161058d565b6001600160a01b03838116600081815260056020908152604080832094871680845294825291829020805460ff191686151590811790915591519182527f17307eab39ab6107e8899845ad3d59bd9653f200f220920489ca2b5937696c31910160405180910390a3505050565b611a45848484611491565b611a5184848484611b9b565b610f4e5760405162461bcd60e51b815260040161058d9061223e565b6060611a7882611320565b611adc5760405162461bcd60e51b815260206004820152602f60248201527f4552433732314d657461646174613a2055524920717565727920666f72206e6f60448201526e3732bc34b9ba32b73a103a37b5b2b760891b606482015260840161058d565b6000611af360408051602081019091526000815290565b90506000815111611b135760405180602001604052806000815250610de5565b80611b1d84611ca8565b604051602001611b2e929190612143565b6040516020818303038152906040529392505050565b805480611b935760405162461bcd60e51b815260206004820152601b60248201527f436f756e7465723a2064656372656d656e74206f766572666c6f770000000000604482015260640161058d565b600019019055565b60006001600160a01b0384163b15611c9d57604051630a85bd0160e11b81526001600160a01b0385169063150b7a0290611bdf903390899088908890600401612172565b602060405180830381600087803b158015611bf957600080fd5b505af1925050508015611c29575060408051601f3d908101601f19168201909252611c269181019061206c565b60015b611c83573d808015611c57576040519150601f19603f3d011682016040523d82523d6000602084013e611c5c565b606091505b508051611c7b5760405162461bcd60e51b815260040161058d9061223e565b805181602001fd5b6001600160e01b031916630a85bd0160e11b149050611263565b506001949350505050565b606081611ccc5750506040805180820190915260018152600360fc1b602082015290565b8160005b8115611cf65780611ce081612419565b9150611cef9050600a83612387565b9150611cd0565b60008167ffffffffffffffff811115611d1f57634e487b7160e01b600052604160045260246000fd5b6040519080825280601f01601f191660200182016040528015611d49576020820181803683370190505b5090505b841561126357611d5e60018361239b565b9150611d6b600a86612434565b611d7690603061236f565b60f81b818381518110611d9957634e487b7160e01b600052603260045260246000fd5b60200101906001600160f81b031916908160001a905350611dbb600a86612387565b9450611d4d565b828054611dce906123de565b90600052602060002090601f016020900481019282611df05760008555611e36565b82601f10611e0957805160ff1916838001178555611e36565b82800160010185558215611e36579182015b82811115611e36578251825591602001919060010190611e1b565b50611e42929150611e46565b5090565b5b80821115611e425760008155600101611e47565b600067ffffffffffffffff80841115611e7657611e76612474565b604051601f8501601f19908116603f01168101908282118183101715611e9e57611e9e612474565b81604052809350858152868686011115611eb757600080fd5b858560208301376000602087830101525050509392505050565b80356001600160a01b0381168114611ee857600080fd5b919050565b600060208284031215611efe578081fd5b610de582611ed1565b60008060408385031215611f19578081fd5b611f2283611ed1565b9150611f3060208401611ed1565b90509250929050565b600080600060608486031215611f4d578081fd5b611f5684611ed1565b9250611f6460208501611ed1565b9150604084013590509250925092565b60008060008060808587031215611f89578081fd5b611f9285611ed1565b9350611fa060208601611ed1565b925060408501359150606085013567ffffffffffffffff811115611fc2578182fd5b8501601f81018713611fd2578182fd5b611fe187823560208401611e5b565b91505092959194509250565b60008060408385031215611fff578182fd5b61200883611ed1565b91506020830135801515811461201c578182fd5b809150509250929050565b60008060408385031215612039578182fd5b61204283611ed1565b946020939093013593505050565b600060208284031215612061578081fd5b8135610de58161248a565b60006020828403121561207d578081fd5b8151610de58161248a565b6000806040838503121561209a578182fd5b823567ffffffffffffffff8111156120b0578283fd5b8301601f810185136120c0578283fd5b6120cf85823560208401611e5b565b95602094909401359450505050565b6000602082840312156120ef578081fd5b5035919050565b60008060408385031215612108578182fd5b50508035926020909101359150565b6000815180845261212f8160208601602086016123b2565b601f01601f19169290920160200192915050565b600083516121558184602088016123b2565b8351908301906121698183602088016123b2565b01949350505050565b6001600160a01b03858116825284166020820152604081018390526080606082018190526000906121a590830184612117565b9695505050505050565b602080825282518282018190526000919060409081850190868401855b8281101561221e57815180518552868101516001600160a01b03908116888701528682015116868601526060808201519086015260809081015115159085015260a090930192908501906001016121cc565b5091979650505050505050565b602081526000610de56020830184612117565b60208082526032908201527f4552433732313a207472616e7366657220746f206e6f6e20455243373231526560408201527131b2b4bb32b91034b6b83632b6b2b73a32b960711b606082015260800190565b6020808252602a908201527f4f6e6c79206974656d206f776e65722063616e20706572666f726d20746869736040820152691037b832b930ba34b7b760b11b606082015260800190565b60208082526024908201527f5072696365206d75737420626520657175616c20746f206c697374696e6720706040820152637269636560e01b606082015260800190565b60208082526031908201527f4552433732313a207472616e736665722063616c6c6572206973206e6f74206f6040820152701ddb995c881b9bdc88185c1c1c9bdd9959607a1b606082015260800190565b6000821982111561238257612382612448565b500190565b6000826123965761239661245e565b500490565b6000828210156123ad576123ad612448565b500390565b60005b838110156123cd5781810151838201526020016123b5565b83811115610f4e5750506000910152565b600181811c908216806123f257607f821691505b6020821081141561241357634e487b7160e01b600052602260045260246000fd5b50919050565b600060001982141561242d5761242d612448565b5060010190565b6000826124435761244361245e565b500690565b634e487b7160e01b600052601160045260246000fd5b634e487b7160e01b600052601260045260246000fd5b634e487b7160e01b600052604160045260246000fd5b6001600160e01b0319811681146124a057600080fd5b5056fea26469706673582212207dd3242955f31796c1698aca6c361a2e48889c784b7e61d7a02814eb4b93a6c764736f6c63430008040033",
  "linkReferences": {},
  "deployedLinkReferences": {}
}